:020000040800F2
:1000000020640020210300081D3700088531000806
:10001000E5330008E10900084D5400080000000025
:10002000000000000000000000000000690200085D
:100030009524000800000000BD020008C14A000825
:100040003B0300083B0300083B0300083B03000898
:100050003B0300083B0300083B0300083B03000888
:100060003B0300083B0300083B030008B5200008E1
:100070003B0300083B0300083B0300083B03000868
:100080003B0300083B0300083B030008590E00082F
:10009000690D00083B0300083B0300083B03000810
:1000A0003B0300083B0300083B0300083B03000838
:1000B0003B0300083B030008314B00083B030008EA
:1000C0003B0300083B0300083B0300083B03000818
:1000D0003B0300083B0300083B03000851500008A5
:1000E0003B0300083B0300083B0300083B030008F8
:1000F0003B0300083B0300083B030008892100087C
:100100003B0300083B0300083B0300083B030008D7
:100110003B0300083B0300083B030008094C0008B0
:100120003B0300083B0300083B0300083B030008B7
:100130003B0300083B0300083B030008491200088A
:1001400001110008351100083B0300083B030008BB
:100150003B0300083B0300083B0300083B03000887
:100160003B0300083B0300083B0300083B03000877
:100170003B0300083B0300083B0300083B03000867
:100180003B0300083B03000800F002F800F05CF8B5
:100190000AA090E8000C82448344AAF10107DA45E2
:1001A00001D100F051F8AFF2090EBAE80F0013F0D8
:1001B000010F18BFFB1A43F001031847D08000005D
:1001C000F08000000A444FF0000C10F8013B13F0DF
:1001D000070408BF10F8014B1D1108BF10F8015BA0
:1001E000641E05D010F8016B641E01F8016BF9D193
:1001F00013F0080F1EBF10F8014BAD1C0C1B09D1EA
:100200006D1E58BF01F801CBFAD505E014F8016B5B
:1002100001F8016B6D1EF9D59142D6D370470000ED
:100220000023002400250026103A28BF78C1FBD8FF
:10023000520728BF30C148BF0B6070471FB507F099
:1002400066F91FBD10B510BD00F00AFA1146FFF7A0
:10025000F5FF05F059FD00F028FA03B4FFF7F2FFAF
:1002600003BC00F029FA00002A4B19680868B0E8BE
:10027000F04F80F30988BFF36F8F4FF0000080F3D9
:10028000118870470000000006480068006880F38D
:10029000088862B661B6BFF34F8FBFF36F8F00DF80
:1002A00000BF00BF08ED00E0DFF80C00016841F47A
:1002B00070010160704700BF88ED00E0EFF3098036
:1002C000BFF36F8F134B1A681EF0100F08BF20ED9D
:1002D000108A20E9F04F106008B44FF0500080F30E
:1002E0001188BFF34F8FBFF36F8F06F001FA4FF005
:1002F000000080F3118808BC19680868B0E8F04F66
:100300001EF0100F08BFB0EC108A80F30988BFF30D
:100310006F8F704714020020EFF3058070470000D4
:100320000948804709480047FEE7FEE7FEE7FEE789
:10033000FEE7FEE7FEE7FEE7FEE7FEE704480549C5
:10034000054A064B70470000C94A000889010008A9
:10035000205E00202064002020600020206000201B
:10036000DFED300AB5EEC00A60EE200ABDEEE01AFD
:1003700011EE100AF1EE10FA38BF401E00EE100A1E
:100380009FED291AB8EEC00A70EEC00A20EE810A6D
:10039000BCEEC00A10EE100A00EE100A0028B8EEFB
:1003A000C00A10EE810AB8BF002004DBB0F5807FE0
:1003B000C8BF4FF480701D4960EE000AB6EE001A07
:1003C000DFED1C2A9FED1A2A60EE011A60EE225A18
:1003D00020EE813A20EE022A21EEA01A01EB8000E5
:1003E00073EE655A62EE202AB7EE006A33EE003AE9
:1003F000D0EC043A76EE611A71EE600A35EEE20A4C
:1004000033EE413A32EEC21A70EEA10A20EE230A10
:1004100064EE831A04EE200A45EE011A31EE800ADA
:100420007047000083F9223E00008043707A000884
:10043000ABAA2A3EABAAAA3EDFED300AB5EEC00A4F
:1004400060EE200ABDEEE01A11EE100AF1EE10FA8D
:1004500038BF401E00EE100A9FED291AB8EEC00A00
:1004600070EEC00A20EE810ABCEEC00A10EE100A3F
:1004700000EE100A0028B8EEC00A10EE810AB8BFDC
:10048000002004DBB0F5807FC8BF4FF480701D49A9
:1004900060EE000AB6EE001ADFED1C2A9FED1A2A64
:1004A00060EE011A60EE225A20EE813A20EE022A16
:1004B00021EEA01A01EB800073EE655A62EE202A4D
:1004C000B7EE006A33EE003AD0EC043A76EE611AE9
:1004D00071EE600A35EEE20A33EE413A32EEC21AAC
:1004E00070EEA10A20EE230A64EE831A04EE200ABD
:1004F00045EE011A31EE800A7047000083F9223E72
:1005000000008043807E0008ABAA2A3EABAAAA3E28
:100510000180428043607047F0B403884268448899
:10052000488800264D689C46834205BF09888C4256
:100530006FF00200A7081CBFF0BC7047380005EB45
:1005400086011BD0B2EC010A401E0004000C81EDB4
:10055000000A01EB8301B2EC010A81ED000A01EB14
:100560008301B2EC010A81ED000A01EB8301B2ECD8
:10057000010A81ED000A01EB8301E3D114F00300CD
:100580000AD000BFB2EC010A401E0004000C81ED4D
:10059000000A01EB8301F5D1701C86B2ACF10100B9
:1005A0001FFA80FCBCF1000FC8D1F0BC00207047DE
:1005B00002F0FF0343EA032242EA024200F005B8D8
:1005C0007047704770474FF000020429C0F0128056
:1005D00010F0030C00F01B80CCF1040CBCF1020FF6
:1005E00018BF00F8012BA8BF20F8022BA1EB0C01CB
:1005F00000F00DB85FEAC17C24BF00F8012B00F8C1
:10060000012B48BF00F8012B70474FF0000200B5E6
:10061000134694469646203922BFA0E80C50A0E825
:100620000C50B1F12001BFF4F7AF090728BFA0E8D3
:100630000C5048BF0CC05DF804EB890028BF40F89F
:10064000042B08BF704748BF20F8022B11F0804FE1
:1006500018BF00F8012B704700487047C05D0020AC
:100660007546FFF7F9FFAE4605006946534620F090
:100670000700854618B020B5FFF760FEBDE82040B2
:100680004FF000064FF000074FF000084FF0000B4E
:1006900021F00701AC46ACE8C009ACE8C009ACE801
:1006A000C009ACE8C0098D4670470446AFF300802E
:1006B0002046FFF7D2FD000001491820ABBEFEE73F
:1006C000260002007047000010B5642005F036F8DF
:1006D0000C4840880C4908810846B0F9080041F2EE
:1006E000A221081A00EE100AB8EEC00ADFED070AD0
:1006F00020EE200ADFED060A80EE201A024880ED87
:10070000031A10BD80020020980600200000B443A8
:10071000000000460B48B0F9020041F2A221081A7D
:1007200000EE100AB8EEC00ADFED070A20EE200A3C
:10073000DFED060A80EE201A054880ED001A90EDE4
:10074000000A7047800200200000B4430000004609
:100750009806002010B52DED068B6B480078032815
:1007600078D104F06FFF69494989441AE01704EB16
:10077000D040401300B26649088004F063FF64492A
:10078000B1F90010A0EB4130604949890C1A2046AC
:1007900006F0DBFB41EC1A0B9FED5E0B53EC102BCC
:1007A00006F04CFA41EC190B9FED5C0B53EC102B4F
:1007B00006F01EFC41EC180B06F05AF95949486046
:1007C00004F040FF5249B1F90010A0EB413041F66E
:1007D0008C110C1A204606F0B8FB41EC1A0B9FED69
:1007E0004D0B53EC102B06F029FA41EC190B9FED41
:1007F0004B0B53EC102B06F0FBFB41EC180B06F0F7
:1008000037F948494861084690ED050ADFED460A88
:10081000B4EEE00AF1EE10FA08DD90ED050ADFED26
:10082000430A30EE600A80ED050A42E03D4890ED53
:10083000050ADFED3F0AB4EEE00AF1EE10FA38D215
:1008400090ED050ADFED390A30EE200A80ED050A49
:100850002FE0FFE704F0F6FE2C49C988441AE017A0
:1008600004EBD040401300B22949088004F0EAFEAE
:100870002749B1F90010A0EB41302449C9880C1A6E
:10088000204606F062FB41EC1A0B9FED220B53EC65
:10089000102B06F0D3F941EC190B9FED200B53EC14
:1008A000102B06F0A5FB41EC180B06F0E1F81D49F2
:1008B00048601C4890ED010ADFED1B0AB4EEE00A27
:1008C000F1EE10FA08DD90ED010ADFED180A30EEC6
:1008D000600A80ED010A11E0124890ED010ADFED97
:1008E000140AB4EEE00AF1EE10FA07D290ED010A14
:1008F000DFED0E0A30EE200A80ED010A094890ED86
:10090000010ABDEC068B10BD94010020F00200200E
:1009100064010020000000000000C0400000000052
:100920000080764098060020000034430000B44365
:10093000000034C321E0114803F03EFD1048C078A8
:1009400060B1012802D002280BD103E00B4802F06D
:100950004BFD07E0094803F0ABFC03E003F0B6FAF7
:1009600000E000BF00BF02F0D5FB022005F002FE50
:10097000002005F05FFD03490860DCE78C5D002086
:1009800094010020AC01002010B504F0E7FD0749F8
:10099000074802F031FC0549064802F02DFC012011
:1009A00005490880FFF790FE10BD00001C000020E4
:1009B000B45C0020205D00201800002070B50546C2
:1009C0000C4600260DB1022C00D870BD611EFF221E
:1009D000284601F08DFE0646601E2E5400BFF4E747
:1009E00000BFFEE710B586B0044600208DF80C006D
:1009F0008DF80D0008208DF80E004001019094ED57
:100A0000010ABDEEC00A10EE100A000A8DF80F00B0
:100A100094ED010ABDEEC00A10EE100AC1B28DF8C5
:100A2000101094ED000AB1EE400ABDEEC00A10EEBF
:100A3000100A010A8DF8111094ED000AB1EE400A77
:100A4000BDEEC00A10EE100AC1B28DF8121094ED7E
:100A5000020ABDEEC00A10EE100A010A8DF813104A
:100A600094ED020ABDEEC00A10EE100AC1B28DF874
:100A700014102D4801788DF81510607B217B40EA19
:100A80004100C1B28DF8161001A9284800F089FE76
:100A900027480068401C2649086008460068642111
:100AA00090FBF1F201FB1200D8BB00208DF80C0086
:100AB0008DF80D0008208DF80E0040F221100190F5
:100AC0001C48C07900F001011A48407B61F35F00C7
:100AD0001849C97A01F0010140EA81001549097BF2
:100AE00001F0010140EAC10012498873084600780C
:100AF0008DF80F0089788DF8101001A80D4909892B
:100B0000ADF811100B49897A8DF813100949897BCA
:100B10008DF8141000200649086001A9034800F070
:100B200040FE06B010BD00009401002000640040AB
:100B30008C020020905C002000B58BB001210220C7
:100B400003F0F8F90121480603F004FA092208210C
:100B50003E4801F0A5FD092211463C4801F0A0FDE8
:100B60004FF44070029002208DF80C0002A9374823
:100B700001F04EFD14208DF8040001208DF80500D1
:100B800000208DF8060001208DF8070001A802F072
:100B9000C7FD13208DF8040001208DF805008DF8A5
:100BA00006008DF8070001A802F0BAFD284800F001
:100BB000ADFB08A800F0E5FD00208DF826008DF8BB
:100BC00027008DF828008DF829008DF82A008DF86F
:100BD0002B008DF822008DF8230008208DF82400CA
:100BE00003208DF82500ADF8200008A9184800F072
:100BF000C6FC00208DF81A0001208DF81B00002093
:100C00008DF81C004FF41050ADF8100044F2200095
:100C1000ADF8120044F24000ADF814000020ADF829
:100C20001600ADF8180001208DF81D0004A800F092
:100C300089FB01220221064800F098FC012211469E
:100C4000034800F093FC0BB000BD0000000402401C
:100C500000640040F0B585B007460C4615461E46B8
:100C600000208DF808008DF8090008208DF80A0092
:100C70008001009039480088002850D117F57A5F2C
:100C800001DC374806E0B7F57A5F02DB4FF47A50B3
:100C900000E03846074614F57A5F01DC304806E08C
:100CA000B4F57A5F02DB4FF47A5000E02046044648
:100CB00015F57A5F01DC2A4806E0B5F57A5F02DBBC
:100CC0004FF47A5000E02846054616F57A5F01DCBD
:100CD000234806E0B6F57A5F02DB4FF47A5000E075
:100CE00030460646380A8DF80B00F9B28DF80C1024
:100CF000210A8DF80D10E1B28DF80E10290A8DF839
:100D00000F10E9B28DF81010310A8DF81110F1B200
:100D10008DF812106946134800F043FD1BE00027D0
:100D2000002400250026380A8DF80B008DF80C7081
:100D3000210A8DF80D108DF80E40290A8DF80F103C
:100D40008DF81050310A8DF811108DF81260694637
:100D5000044800F026FD05B0F0BD0000860200202A
:100D600080C1FFFF0064004000B587B002210A483F
:100D700000F06CFB70B10221074800F073FA02AA80
:100D80000021054800F085FC0698009002A80FC8D5
:100D900000F004F807B000BD006400400FB40098F4
:100DA000B0F5907F05D0A0F20120B8B3012849D159
:100DB00021E09DF80B109DF80C0041EA002000B2E4
:100DC000224908839DF80D00C8829DF80E109DF8F9
:100DD0000F0041EA002000EE100AB8EEC00A1B48DE
:100DE00080ED070A90ED070ADFED190A80EE201A60
:100DF00080ED071A26E09DF80C009DF80B1040EAE4
:100E0000012001B2134801819DF80E109DF80D00DC
:100E100041EA002001B20F48418113E0FFE79DF84D
:100E20000C009DF80B1040EA012000B209494880EF
:100E30009DF80E109DF80D0041EA002000B2054912
:100E4000888000BF00BF04B0704700007409002014
:100E50000000C842845C002010B50121044800F065
:100E6000F5FA18B10121024800F0FCF910BD0000AC
:100E700000640040F0B585B0044600208DF80800FD
:100E80008DF8090008208DF80A008001009014F503
:100E90007A5F01DC134806E0B4F57A5F02DB4FF4B9
:100EA0007A5000E020460446002700250026380A34
:100EB0008DF80B008DF80C70290A8DF80D108DF847
:100EC0000E50310A8DF80F108DF81060210A8DF840
:100ED0001110E1B28DF812106946034800F061FC70
:100EE00005B0F0BD80C1FFFF0068004000B58BB0C9
:100EF0000121022003F01EF80121880603F02AF8E0
:100F000009220D215E4801F0CBFB09220C215C482F
:100F100001F0C6FB4FF44050029002208DF80C0007
:100F20008DF80D0000208DF80E0001208DF80F00C7
:100F300002A9534801F06CFB40208DF8040000200A
:100F40008DF8050003208DF8060001208DF80700BC
:100F500001A802F0E5FB41208DF8040000208DF887
:100F6000050002208DF8060001208DF8070001A879
:100F700002F0D6FB3F208DF8040000208DF805001C
:100F800001208DF806008DF8070001A802F0C8FBCB
:100F90003C4800F0BBF908A800F0F3FB00208DF8F6
:100FA000260001208DF827008DF828008DF82900F3
:100FB00000208DF82A0001208DF82B0000208DF8EC
:100FC00022008DF8230008208DF8240003208DF8DE
:100FD0002500ADF8200008A92A4800F0D0FA0F201B
:100FE0008DF81A0001208DF81B0000208DF81C00E0
:100FF00044F2A000ADF8100044F2C000ADF81200B9
:101000004FF48140ADF814008020ADF816000020A8
:10101000ADF8180001208DF81D0004A800F092F929
:1010200010208DF81A0001208DF81B0000208DF88B
:101030001C004FF40050ADF810000020ADF8120075
:1010400042F22000ADF814000020ADF81600012097
:10105000ADF818008DF81D0004A800F073F9012206
:101060000221084800F082FA01221021054800F010
:101070007DFA01221146034800F078FA0BB000BD5A
:10108000000402400068004030B585B004460D46BB
:1010900000208DF808008DF8090008208DF80A005E
:1010A00040F2FF1000901448844200DC05E047F253
:1010B0003050844200DB00E0204604460E48854262
:1010C00000DC05E047F23050854200DB00E02846B6
:1010D0000546200A8DF80B00E1B28DF80C10290AA4
:1010E0008DF80D10E9B28DF80E106946034800F036
:1010F00058FB05B030BD0000D08AFFFF00680040FB
:1011000000B587B002210A4800F0A0F970B10221B1
:10111000074800F0A7F802AA0021054800F0B9FA34
:101120000698009002A80FC800F01EF807B000BD96
:101130000068004000B587B010210A4800F086F929
:1011400070B11021074800F08DF802AA012105486E
:1011500000F09FFA0698009002A80FC802F01CFB4E
:1011600007B000BD006800400FB40098042808D004
:10117000B0F5017F48D0A0F2052030B3012856D148
:1011800004E09DF80B002B49088050E09DF80C000E
:101190009DF80B1040EA012000B2274948809DF8D5
:1011A0000E109DF80D0041EA002000B2224988800F
:1011B0009DF810109DF80F0041EA002000B21E4972
:1011C000088000201D49088031E09DF80C009DF842
:1011D0000B1040EA012000B2194948809DF80E101A
:1011E0009DF80D0041EA002000B2154988809DF865
:1011F00010109DF80F0041EA002000B2104908804D
:1012000000200E49088012E09DF80C009DF80B109C
:1012100040EA012000B20B4948809DF80E109DF86D
:101220000D0041EA002000B20649888000BF00BFDF
:1012300004B07047860200207A0200208802002055
:10124000800200207402002010B50121044800F043
:10125000FDF818B10121024800F004F810BD0000AB
:1012600000680040B1F5007F3AD00FDC202928D07B
:1012700006DC01291CD004291DD0082940D11DE01D
:10128000402921D0B1F5807F3AD126E0B1F5004F59
:1012900031D006DCB1F5806F25D0B1F5006F2FD1CC
:1012A00024E0B1F5803F12D0B1F5003F28D111E024
:1012B000154A826025E00822C26022E01022C26046
:1012C0001FE0082202611CE01022026119E00822DE
:1012D000426016E01022426013E00422426010E0F7
:1012E000042242600DE0042242600AE00022826192
:1012F0000422426005E0002282610422426000E094
:1013000000BF00BF704700000101010010B5044696
:101310000B48844209D10121480602F02BFE00212E
:101320004FF0007002F026FE08E00121880602F06E
:1013300021FE00214FF0806002F01CFE10BD000075
:101340000064004010B50021837A012202FA03F103
:101350003D4A126842F001023B4B1A603A4A1C3285
:1013600012688A43384B1C331A60027BCAB9364A6A
:101370000C3212688A43344B0C331A604288C3889B
:1013800042EA0343304A4032847A42F834300288D9
:10139000838842EA03432C4A4032847A02EBC40237
:1013A0005360027B012A19D1274A0C3212680A4382
:1013B000254B0C331A604288038842EA0343224AD1
:1013C0004032847A42F83430C288838842EA034348
:1013D0001D4A4032847A02EBC4025360C27A3AB9A1
:1013E000194A121D12688A43174B1B1D1A6006E02A
:1013F000154A121D12680A43134B1B1D1A600289FD
:1014000032B9114A143212688A430F4B14331A60EE
:101410000289012A06D10C4A143212680A430A4B87
:1014200014331A60427B012A06D1074A1C32126823
:101430000A43054B1C331A60034A126822F001026A
:10144000014B1A6010BD00000066004070B50446F4
:101450000D46002660692840002871D0B5F5807FD0
:101460005CD010DC082D35D006DC012D20D0022DFB
:1014700024D0042D72D127E0102D31D0202D35D06D
:10148000402D6BD138E0B5F5004F60D009DCB5F5E3
:10149000007F49D0B5F5806F4CD0B5F5006F5DD1B8
:1014A0004FE0B5F5803F2DD0B5F5003F56D12FE088
:1014B000A0682D4900F0F4FD064651E0E0680321E4
:1014C00000F0EEFD06464BE0E068082100F0E8FD84
:1014D000064645E0E068102100F0E2FD06463FE0E8
:1014E0002069032100F0DCFD064639E0206908216F
:1014F00000F0D6FD064633E02069102100F0D0FD53
:1015000006462DE06068082100F0CAFD064627E087
:101510006068102100F0C4FD064621E0A0690121A9
:1015200000F0BEFD06461BE0A069022100F0B8FDF8
:10153000064615E0A069042100F0B2FD06460FE062
:101540000FE0A069702100F0ABFD064608E060687E
:10155000042100F0A5FD064602E0FFE7002600BFDB
:1015600000E00026304670BD010101001AB1436958
:101570000B43436102E043698B434361704730B5DD
:10158000024600200023146824F00204146014684A
:1015900044F00104146000E05B1C546804F0010492
:1015A0001CB94FF6FF74A342F6D1546804F001044D
:1015B0000CB900206CE08C79012C04D1146844F043
:1015C0008004146003E0146824F080041460CC7973
:1015D000012C04D1146844F04004146003E0146842
:1015E00024F0400414600C7A012C04D1146844F0F7
:1015F0002004146003E0146824F0200414604C7A82
:10160000012C04D1146844F01004146003E0146841
:1016100024F0100414608C7A012C04D1146844F076
:101620000804146003E0146824F008041460CC7A01
:10163000012C04D1146844F00404146003E014681D
:1016400024F0040414608C78A407CD7844EA05647F
:101650000D7944EA05444D7944EA05540D886D1E20
:101660002C43D461146824F001041460002300E0CA
:101670005B1C546804F001041CB14FF6FF74A342D4
:10168000F6D1546804F001040CB1002000E0012000
:1016900030BD10B500F5D87303EB01131B6803F0E0
:1016A00004031372137A53B900F5D87303EB0113D3
:1016B0001B6840F2FF7404EA5353136009E000F51D
:1016C000D87303EB01131B686FF0604404EAD30383
:1016D000536000F5D87303EB01131B6803F002039A
:1016E000537200F5D87303EB01135B6803F00F032B
:1016F000937200F5D87303EB01135B681B0AD37474
:1017000000F5D87303EB01139B68D37200F5D8730F
:1017100003EB01139B681C0A147300F5D87303EBE9
:1017200001139B681C0C547300F5D87303EB011371
:101730009B681B0E937300F5D87303EB0113DB68F2
:10174000D37300F5D87303EB0113DB681C0A147420
:1017500000F5D87303EB0113DB681C0C547400F51F
:10176000D87303EB0113DB681B0E937421B9C368B4
:1017700043F02003C36003E0036943F020030361E7
:1017800010BD00218171C171017241728172C172FB
:101790008170C17003210171022141710121018019
:1017A000704710B502460020936803F08063B3F1E0
:1017B000806F00D110E0936803F00063B3F1006F15
:1017C00001D1012008E0936803F08053B3F1805FFA
:1017D00001D1022000E00420042874D002F5C07377
:1017E00003EB00131B6803F0010402F5C07303EB65
:1017F00000131C600B7A7BB94B7A0C8843EA445384
:1018000002F5C07404EB00142468234302F5C0748D
:1018100004EB0014236010E00B7A4C6843EAC40325
:101820004C7A234302F5C07404EB0014246823436C
:1018300002F5C07404EB001423608B7A03F00F03ED
:101840008B7202F5C07303EB00135B6823F00F0487
:1018500002F5C07303EB00135C6002F5C07303EB89
:1018600000135B688C7A234302F5C07404EB001408
:1018700063608B7B1C064B7B44EA03440B7B44EA8E
:101880000323CC7A234302F5C07404EB0014A36055
:101890008B7C1C064B7C44EA03440B7C44EA032308
:1018A000CC7B234302F5C07404EB0014E36002F523
:1018B000C07303EB00131B6843F0010402F5C0730F
:1018C00003EB00131C6010BD02F06AF92CE003F07A
:1018D000BFFE1648007810B900F03CF91AE0134832
:1018E0000078012802D100F031F813E00F480078A9
:1018F000042802D100F018FA0CE00C480078022805
:1019000002D100F051F905E008480078032801D120
:1019100000F0D0FA00F016F9012004F02BFE0020B0
:1019200004F088FD02490860D1E70000940100201E
:101930000C02002007E0642004F01CFE002004F0EC
:1019400079FD01490860F6E70801002070B570488C
:10195000008802281CD16F48B0F90200B0F5005F82
:1019600006DA6C48B0F9020041F28311884205DCC6
:101970006848B0F90200B0F5C17F04DA41F68C1076
:101980006549C8800CE040F683106349C88007E0D1
:101990005F480088012803D041F68C105E49C8805A
:1019A00003F050FE5D4908605D48008801280AD0B8
:1019B00001205B49088000205A4948739FED5A0A6C
:1019C0005A4880ED000A5A48C07802283BD159484D
:1019D0000088A0F58060642805DD9FED570A514816
:1019E00080ED000A11E053480088A0F5806010F1F6
:1019F000640F05DA9FED510A4A4880ED000A04E0C1
:101A00009FED490A474880ED000A4A484088A0F502
:101A10008060642805DD9FED480A424880ED010A98
:101A200011E044484088A0F5806010F1640F05DAA9
:101A30009FED420A3B4880ED010A04E09FED3A0A1F
:101A4000384880ED010A3A48C07801281CD139484D
:101A5000018BC08A081A4FF4FA61484305B2354831
:101A6000418A808A081A4FF4FA61484304B200EEB2
:101A7000105AB8EEC00A2B4880ED000A00EE104A5A
:101A8000B8EEC00A80ED010AFEF764FE274880ED3B
:101A9000010A01F08FFFDFED2A0A20EE200A21481B
:101AA00080ED020A90ED020ADFED240AB4EEE00AAE
:101AB000F1EE10FA02D89FED210A0FE0194890EDDF
:101AC000020ADFED1D0AB4EEE00AF1EE10FA02DBC5
:101AD0009FED190A02E0134890ED020A114880EDCB
:101AE000020A01200A4908800B48C08841F68C117F
:101AF00088420CD00B4890ED000AB1EE400A80ED10
:101B0000000A90ED010AB1EE400A80ED010A70BDB5
:101B1000060200207A020020F002002008020020C5
:101B2000F401002074090020000000009408002047
:101B3000940100208C5D00200000FA440000FAC4EB
:101B40000000FA4310B50248FEF74CFF10BD00003C
:101B50007409002041F68C100E49C8800E48008898
:101B6000052802D005200C4908809FED0C0A0C487E
:101B700080ED000A9FED090A80ED010A9FED070A3A
:101B800080ED020A00200649487308730549088061
:101B900070470000F0020020F40100200000000067
:101BA000740900200602002070B52DED028B554807
:101BB0000088022805D0022052490880002052499E
:101BC000487341F68C105149C8805148C0780128AB
:101BD00010D15048018BC08A081A4FF4FA6148436B
:101BE00004B24C48418A808A081A4FF4FA6148438B
:101BF00005B225E04648C078022821D14548008832
:101C0000A0F5806000EE100AB8EEC00AF1EE040AFA
:101C100020EE200ABDEEC00A10EE100A04B23D48C4
:101C20004088A0F5806000EE100AB8EEC00AF1EE20
:101C3000040A20EE200ABDEEC00A10EE100A05B21A
:101C40003548D0ED010A9FED351A60EE810AB0EEFD
:101C5000600AFEF785FBF0EE400A00EE104AB8EE8F
:101C6000C00A20EE808A2C48D0ED010A9FED2B1A85
:101C700060EE810AB0EE600AFEF7DEFBF0EE400A8D
:101C800000EE105AB8EEC00A00EE608A1E4880EDE1
:101C9000008A2148D0ED010A9FED201A60EE810AEA
:101CA000B0EE600AFEF75CFBF0EE400A00EE105A60
:101CB000B8EEC00A20EE808A1748D0ED010A9FEDE9
:101CC000171A60EE810AB0EE600AFEF7B5FBF0EE7F
:101CD000400A00EE104AB8EEC00A00EE208A0A4818
:101CE00080ED018A0E48B0F9000000EE100AB8EE4F
:101CF000C00A054880ED020A02200A490880BDECAE
:101D0000028B70BDF401002074090020F002002055
:101D1000940100208C5D00209806002039FA8E3C4A
:101D2000FC0100200602002010B541F68C10574936
:101D3000C8805748008803280ED0032054490880E3
:101D400000205449487303F07DFC00EE100AB8EE01
:101D5000C00A514880ED000A5048C07801281BD1C4
:101D60004F48018BC08A081A4FF4FA61484300EECD
:101D7000100AB8EEC00A474880ED000A4848418A78
:101D8000808A081A4FF4FA61484300EE100AB8EE50
:101D9000C00A404880ED010A4048C078022844D17A
:101DA0003F480088A0F58060642805DD9FED3D0A6E
:101DB000384880ED000A11E039480088A0F58060BD
:101DC00010F1640F05DA9FED380A324880ED000A01
:101DD00004E09FED360A2F4880ED000A3048408825
:101DE000A0F58060642805DD9FED2E0A294880ED6E
:101DF000010A11E02A484088A0F5806010F1640FC4
:101E000005DA9FED290A234880ED010A04E09FEDE1
:101E1000270A204880ED010A20484078052804D18F
:101E20009FED220A1B4880ED020A1D48418B808BE2
:101E3000081A40F6C411484300EE100AB8EEC00A72
:101E4000144880ED020A90ED020ADFED170AB4EEA5
:101E5000E00AF1EE10FA02D89FED130A0FE00D48E8
:101E600090ED020ADFED0F0AB4EEE00AF1EE10FA8F
:101E700002DB9FED0C0A02E0064890ED020A0548DD
:101E800080ED020A04200A49088010BDF0020020FB
:101E9000F40100207409002094080020940100201F
:101EA0008C5D00200000FA440000FAC4000000002D
:101EB0000602002070B52DED028B6C4800880428C6
:101EC0000BD004206949088003F0BCFB00EE100A27
:101ED000B8EEC00A664880ED000A66484089654948
:101EE000C8806548C078012810D16448018BC08A39
:101EF000081A4FF4FA61484304B26048418A808A64
:101F0000081A4FF4FA61484305B225E05A48C078F0
:101F1000022821D159480088A0F5806000EE100AFF
:101F2000B8EEC00AF1EE040A20EE200ABDEEC00AA7
:101F300010EE100A04B251484088A0F5806000EE0F
:101F4000100AB8EEC00AF1EE040A20EE200ABDEE37
:101F5000C00A10EE100A05B24948D0ED050A9FEDFF
:101F6000491A60EE810AB0EE600AFEF7F9F9F0EE68
:101F7000400A00EE104AB8EEC00A20EE808A4048BF
:101F8000D0ED050A9FED3F1A60EE810AB0EE600ABF
:101F9000FEF752FAF0EE400A00EE105AB8EEC00A10
:101FA00000EE608A384880ED008A3548D0ED050A99
:101FB0009FED341A60EE810AB0EE600AFEF7D0F9A8
:101FC000F0EE400A00EE105AB8EEC00A20EE808A09
:101FD0002B48D0ED050A9FED2B1A60EE810AB0EE7A
:101FE000600AFEF729FAF0EE400A00EE104AB8EE59
:101FF000C00A00EE208A244880ED018A9FED230A62
:102000001B4880ED000AFEF7A5FB194880ED010A88
:1020100001F0D0FCDFED1E0A20EE200A1A4880ED08
:10202000020A90ED020ADFED1B0AB4EEE00AF1EEBF
:1020300010FA02D89FED170A0FE0134890ED020A3C
:10204000DFED150AB4EEE00AF1EE10FA02DB9FEDC7
:10205000120A02E00C4890ED020A0B4880ED020AD9
:1020600003200E490880BDEC028B70BDF4010020F6
:1020700094080020F0020020940100208C5D0020D4
:102080009806002039FA8E3C7409002000000000F8
:102090000000FA430000FAC40000FA4406020020DF
:1020A0000246002002EA01030BB1012000E00020FB
:1020B0007047000070B52C492C4800F06DF90028DD
:1020C00050D02B482B490A6802604A684260097A5E
:1020D0000172002432E026480938005D21282BD106
:1020E000002507E0281922490939085C224948558A
:1020F000681C05B2092DF5DB20480088401C00B2A1
:102100001E49088009211C4803F0A2F918B11A4899
:1021100001F0F4FB0FE01A480088401C00B2184997
:102120000880B1F90000C11700EB91718910A0EB94
:102130008101134A118003E0601C04B2092CCADB40
:1021400000BF1049094800F037F80749074800F078
:102150004DF80748093806490A6802604A68426033
:10216000097A017270BD00002080001010600240EA
:10217000BB0300207C03002085030020F00000202A
:10218000F20000202000001010B50949094800F0B5
:1021900003F918B10021074800F042F84FF0205130
:1021A000044800F009F80249024800F01FF810BD89
:1021B00000800028B86002400246094B9A4201D2D2
:1021C000084801E00648103801F000531BB1064BE7
:1021D0000B40C36002E0044B0B408360704700007B
:1021E00010640240006002407D0F7D0F0246094BE3
:1021F0009A4201D2084801E00648103801F0005325
:102200001BB1064B0B40C36002E0044B0B408360E4
:102210007047000010640240006002407D0F7D0F97
:1022200021B1026842F00102026003E0026822F07C
:102230000102026070470000016821F001010160A5
:102240000021016041608160C16001612121416123
:102250004A49884204D13D21484A103A91608CE0B5
:1022600046491831884205D14FF47461434A103A07
:10227000916082E041493031884205D14FF47411B8
:102280003E4A103A916078E03C494831884205D195
:102290004FF07461394A103A91606EE0374960310D
:1022A000884204D13649354A103AD16065E0334955
:1022B0007831884204D13349304A103AD1605CE029
:1022C0002E499031884204D12F492C4A103AD160CE
:1022D00053E02A49A831884205D14FF03D51274AA1
:1022E000103AD16049E02949884204D13D21274A6A
:1022F000083A116041E025491831884205D14FF470
:102300007461224A083A116037E02049303188422E
:1023100005D14FF474111D4A083A11602DE01B4994
:102320004831884205D14FF07461184A083A11606B
:1023300023E016496031884204D11149134A121F23
:1023400011601AE011497831884204D10D490F4AD1
:10235000121F116011E00D499031884204D10A49E1
:102360000A4A121F116008E00849A831884204D1C6
:102370004FF03D51054A121F116070471060024036
:102380003D000020400F002000003D20106402406E
:102390000146486880B2704770B5024600200024AC
:1023A0000025124EB24201D2114B01E00F4B103BFF
:1023B000104E0E4036B11E2606EAD124166806EAF3
:1023C000040502E0566906F0800501F000560EB1E2
:1023D0005C6800E01C68084E344004EA010616B14F
:1023E0000DB1012000E0002070BD0000106402402B
:1023F000006002403C0F3C0F7D0F7D0F10B501F0D7
:1024000080034BB122B1436943F08003436103E091
:10241000436923F08003436180290BD02AB103680C
:1024200001F01E042343036004E0036801F01E046E
:10243000A343036010BD000010B500220268134BD7
:102440001A40CC680B6823434C6923438C692343AF
:10245000CC6923430C6A23434C6A23438C6A23438D
:102460004C6B23438C6B23431A430260426922F076
:102470000702D1E90B3423431A4342610B694360DD
:102480004B6883608B68C36010BD00003F801CF008
:10249000416070477047000010B58EB0044694ED5F
:1024A000000AD4ED010A30EE600A84ED030A94EDCF
:1024B000030A3B48D0ED000A30EE600A84ED050ABD
:1024C00094ED040AD4ED030A30EE200A84ED040AE8
:1024D00094ED040AD4ED060AB4EEE00AF1EE10FA27
:1024E00004DB94ED060A84ED040A10E094ED040A7E
:1024F000D4ED060AF1EE600AB4EEE00AF1EE10FA4D
:1025000005D894ED060AB1EE400A84ED040A94ED74
:10251000030A84ED020A94ED030A214880ED000AC3
:1025200094ED0A0AD4ED030A20EE200A84ED070A8E
:1025300094ED0B0AD4ED040A20EE200A84ED080A7B
:1025400094ED0C0AD4ED050A20EE200A84ED090A68
:1025500094ED051AF0EE410A94ED031AB0EE410A2B
:1025600001A803F0F9F894ED0A0ADDED0B0A30EE4C
:10257000200AD4ED030A20EE200AD4ED0C0A9DEDCA
:102580000D1A70EE810A94ED051A00EE810AD4ED61
:102590000B0A94ED041A00EE810A0EB010BD000083
:1025A000B402002001F056FC01F08CFB01F0DEFBD0
:1025B00001F018FB27E003F04BF8FEF7CBF81248C8
:1025C0004078012802D100F0D3FA12E00E4840789A
:1025D00010B900F04FFC0CE00B484078022802D103
:1025E00000F0B4FB05E008484078052801D100F070
:1025F00089FC00F08FF8002003F01CFF03490860FD
:10260000012003F0B7FFD6E7940100206801002005
:10261000F0B50A4600210023002400BF3DE001255B
:1026200005FA01F3156805EA03049C4234D10568F4
:102630004F000326BE40B543056015794E00B540F6
:102640000668354305601579012D02D01579022DF4
:1026500016D185684F000326BE40B5438560557985
:102660004E00B540866835438560456801268E403A
:10267000B5434560456896798E40B6B235434560AE
:10268000C5684F000326BE40B543C560D5794E00EE
:10269000B540C6683543C560491C1029BFD3F0BD9D
:1026A000F0B5002300244D07ED0E02FA05F3CE101D
:1026B00000F1200555F826504E07F70E0F26BE40B4
:1026C000B543CF1000F1200646F82750CE1000F198
:1026D000200555F8265045EA0304CE1000F12005E8
:1026E00045F82640F0BD41837047018370470000E4
:1026F00030B5034605E013F8010B80EA02040448F4
:10270000025D0800A1F10101F5D1104630BD0000C5
:102710002377000810B5FD484078002878D0FB48A2
:102720004078012875D1FDF7F5FFF94880ED010AE1
:10273000FFF7B2FEF9EE0C0AB4EEE00AF1EE10FA81
:1027400002D8B9EE0C0A0FE0F148FFF7A5FEF1EE52
:102750000C0AB4EEE00AF1EE10FA02DBB1EE0C0A5C
:1027600002E0EB48FFF798FEEA4880ED000AEA48ED
:1027700090ED000AE74880ED010A01F01BF9DFED5A
:10278000E70AB4EEE00AF1EE10FA02D89FEDE30A90
:102790000FE0E04801F00EF9DFEDE10AB4EEE00AE7
:1027A000F1EE10FA02DB9FEDDE0A02E0D94801F0FB
:1027B00001F9BDEEC00A10EE100A00B2D949088036
:1027C000D54890ED030AD84880ED010AD24890ED33
:1027D000010AB1EE400AD54880ED010AD24801F065
:1027E000E9F8F9EE0C0AB4EEE00AF1EE10FA02D8BC
:1027F000B9EE0C0A11E0CC4801F0DCF8F1EE0C0A5D
:10280000B4EEE00AF1EE10FA04DBB1EE0C0A04E0DB
:10281000A2E129E0C44801F0CDF8C44880ED000AE7
:1028200001F0C8F8DFEDBD0AB4EEE00AF1EE10FAEF
:1028300002D89FEDBA0A0FE0BC4801F0BBF8DFED0B
:10284000B80AB4EEE00AF1EE10FA02DB9FEDB40A2A
:1028500002E0B64801F0AEF8BDEEC00A10EE100A74
:1028600000B2B349088048E1A8484078022875D1F1
:10287000FDF750FFAF4880ED010AA74890ED000A30
:10288000AD4880ED010AAB4801F094F8F9EE0C0A6E
:10289000B4EEE00AF1EE10FA02D8B9EE0C0A0FE03D
:1028A000A44801F087F8F1EE0C0AB4EEE00AF1EE6C
:1028B00010FA02DBB1EE0C0A02E09E4801F07AF851
:1028C0009D4880ED000A01F075F8DFED940AB4EE42
:1028D000E00AF1EE10FA02D89FED900A0FE0964858
:1028E00001F068F8DFED8E0AB4EEE00AF1EE10FABE
:1028F00002DB9FED8B0A02E08F4801F05BF8BDEE32
:10290000C00A10EE100A00B286490880824890ED95
:10291000030A8A4880ED010A7F4890ED010AB1EE72
:10292000400A874880ED010A844801F043F8F9EE37
:102930000C0AB4EEE00AF1EE10FA02D8B9EE0C0A75
:1029400010E07E4801F036F8F1EE0C0AB4EEE00A31
:10295000F1EE10FA03DBB1EE0C0A03E029E0774850
:1029600001F028F8764880ED000A01F023F8DFED49
:102970006B0AB4EEE00AF1EE10FA02D89FED670A96
:102980000FE06F4801F016F8DFED650AB4EEE00ADB
:10299000F1EE10FA02DB9FED620A02E0684801F0F6
:1029A00009F8BDEEC00A10EE100A00B260490880B6
:1029B000A3E056484078052875D1FDF7ABFE614885
:1029C00080ED010A544890ED000A5F4880ED010A4D
:1029D0005C4800F0EFFFF9EE0C0AB4EEE00AF1EE0D
:1029E00010FA02D8B9EE0C0A0FE0564800F0E2FFE8
:1029F000F1EE0C0AB4EEE00AF1EE10FA02DBB1EEF1
:102A00000C0A02E04F4800F0D5FF4F4880ED000A65
:102A100000F0D0FFDFED410AB4EEE00AF1EE10FA6B
:102A200002D89FED3E0A0FE0474800F0C3FFDFEDFC
:102A30003C0AB4EEE00AF1EE10FA02DB9FED380A30
:102A400002E0414800F0B6FFBDEEC00A10EE100AE9
:102A500000B2344908803D4890ED010A3C4880EDC1
:102A6000010A2D4890ED010AB1EE400A394880ED87
:102A7000010A374800F09EFFF9EE0C0AB4EEE00AB6
:102A8000F1EE10FA02D8B9EE0C0A10E0304800F06E
:102A900091FFF1EE0C0AB4EEE00AF1EE10FA03DB5E
:102AA000B1EE0C0A03E028E0294800F083FF294832
:102AB00080ED000A00F07EFFDFED180AB4EEE00AB8
:102AC000F1EE10FA02D89FED150A0FE0214800F050
:102AD00071FFDFED130AB4EEE00AF1EE10FA02DB4B
:102AE0009FED0F0A02E01B4800F064FFBDEEC00A34
:102AF00010EE100A00B20E4908800D48B0F900101F
:102B00000848B0F90000FEF7BFFA2CE0940100205D
:102B1000640600206C040020BC0200200060EAC6AD
:102B20000060EA464C010020C40300203404002069
:102B30004E010020DC04002014050020A404002025
:102B40004C050020F40500202C06002098060020EB
:102B500084050020BC0500200020034908800349AB
:102B6000088000F087F910BD4C0100204E010020C4
:102B700063480088012810D00020624908709FED4A
:102B8000620A624880ED000A614890ED030A6148DC
:102B900080ED000A01205A4908805F480088022819
:102BA0000BD15E4890ED000A584880ED000A5C4861
:102BB00090ED000A574880ED000A5A48C078022874
:102BC00021D15948C088C0F5806000EE100AF8EEA7
:102BD000C00A4E4890ED000A9FED541A00EEC10A5B
:102BE00080ED000A50488088C0F5806000EE100A31
:102BF000F8EEC00A474890ED000A9FED4C1A00EE2F
:102C0000810A80ED000A4748C07801282FD1464844
:102C1000B0F90C0000EE100AF8EEC00A3B4890ED47
:102C2000000A9FED431A00EE810A80ED000A3E483B
:102C3000B0F90A0000EE100AF8EEC00A354890ED2F
:102C4000000A9FED3B1A00EE810A80ED000A36482B
:102C5000B0F90E0000EE100AF8EEC00A2B4890ED15
:102C6000000A9FED341A00EE810A80ED000A274821
:102C7000D0ED000A3048B0F9000000EE100AB8EEBE
:102C8000C00AF4EEC00AF1EE10FA07D82A48B0F9EB
:102C9000000000EE100AB8EEC00A19E01B48D0EDA3
:102CA000000A2648B0F9000000EE100AB8EEC00A8B
:102CB000F4EEC00AF1EE10FA07DB2048B0F900008C
:102CC00000EE100AB8EEC00A02E0104890ED000ACB
:102CD0000E4880ED000A90ED000A194880ED000AC8
:102CE0000C4890ED000A174880ED000A074890ED67
:102CF000000A154880ED000A012007490880704746
:102D00005A010020300100200000000034010020A2
:102D1000BC020020380100204001002044010020B6
:102D200048010020940100208C5D002017B7513924
:102D30006F1283BB6F12833A5201002050010020B2
:102D4000FC030020C40300206406002000B53B48BB
:102D50000088022810D0FDF7DDFC394880ED000A1C
:102D6000384890ED030A384880ED000A02203349C4
:102D70000880102035490870354890ED010A354823
:102D800080ED000A324890ED000A2D4880ED000ADF
:102D9000D0ED000A3048B0F9000000EE100AB8EE9D
:102DA000C00AF4EEC00AF1EE10FA07D82A48B0F9CA
:102DB000000000EE100AB8EEC00A19E02048D0ED7D
:102DC000000A2648B0F9000000EE100AB8EEC00A6A
:102DD000F4EEC00AF1EE10FA07DB2048B0F900006B
:102DE00000EE100AB8EEC00A02E0154890ED000AA5
:102DF000134880ED000A174890ED000A124880ED54
:102E0000000A0F4890ED000A154880ED000A0E48B0
:102E100090ED000A134880ED000A094890ED000A81
:102E2000114880ED000A084890ED000A0F4880ED37
:102E3000000A02200E49088000BD00005A0100204F
:102E400034010020BC0200203801002030010020A5
:102E5000A05C00205C0100205201002050010020F5
:102E6000DC040020A40400204401002048010020CC
:102E70004001002010B519480088032802D0032023
:102E80001649088016480088B0F5C87F07DA14484C
:102E9000C088B0F5C87F02DAFF20124908709FEDA4
:102EA000120A124880ED000A9FED0F0A104880EDCB
:102EB000000A104890ED020A0F4880ED000A0D4804
:102EC00090ED030A0D4880ED000A00200C490880AF
:102ED00000210846FEF7D8F810BD00005A01002076
:102EE0008C5D002030010020000000006C040020F8
:102EF00034040020BC020020FC030020C403002096
:102F0000400100207048008804280FD040206F49FD
:102F1000087004206C4908809FED6D0A6D4880EDB3
:102F2000000AB3EE0E0A6C4880ED000A6B48008878
:102F300002280BD16A4890ED000A674880ED000A2C
:102F4000684890ED000A634880ED000A6648C07842
:102F5000022821D16548C088C0F5806000EE100AC3
:102F6000F8EEC00A5C4890ED000A9FED611A00EE91
:102F7000C10A80ED000A5D488088C0F5806000EEDF
:102F8000100AF8EEC00A534890ED000A9FED581A57
:102F900000EE810A80ED000A5348C07801282FD145
:102FA0005248B0F90C0000EE100AF8EEC00A4A4888
:102FB00090ED000A9FED4F1A00EE810A80ED000AA5
:102FC0004A48B0F90A0000EE100AF8EEC00A41487B
:102FD00090ED000A9FED471A00EE810A80ED000A8D
:102FE0004248B0F90E0000EE100AF8EEC00A3A4866
:102FF00090ED000A9FED401A00EE810A80ED000A74
:103000003548D0ED000A3D48B0F9000000EE100A46
:10301000B8EEC00AF4EEC00AF1EE10FA07D837484D
:10302000B0F9000000EE100AB8EEC00A19E02A4814
:10303000D0ED000A3248B0F9000000EE100AB8EEF8
:10304000C00AF4EEC00AF1EE10FA07DB2C48B0F922
:10305000000000EE100AB8EEC00A02E01E4890ED33
:10306000000A1D4880ED000A1A4890ED000ADFEDC5
:10307000250AB4EEE00AF1EE10FA02D89FED210A1B
:103080000FE0144890ED000ADFED1F0AB4EEE00AED
:10309000F1EE10FA02DB9FED1C0A02E00D4890ED04
:1030A000000A0C4880ED000A0B4890ED000A174812
:1030B00080ED000A074890ED000A154880ED000AEF
:1030C00005200649088070475A0100203001002081
:1030D00000000000380100203401002040010020E1
:1030E0004401002048010020940100208C5D002054
:1030F00017B751396F1283BB6F12833A5201002008
:1031000050010020000034C300003443F4050020C7
:103110008405002010B51448007814494880FDF754
:1031200019FBBCEEC00A10EE100A10490873FDF737
:10313000F1FADFED0F0A20EE200ABDEEC00A10EE14
:10314000100A00B209490881074840788872094886
:103150000078C8710848007888710848007848737A
:103160000748007B088010BD94010020905C00207F
:103170000000C8429A010020C40100209C010020E8
:103180007409002000BFFEE770B505460C4645F205
:10319000555000F02BF8284600F01CF8204600F0AF
:1031A0001FF800F00FF800F001F870BD4CF6CC40AD
:1031B00001490860704700000030004010B500F081
:1031C00001F810BD4AF6AA200149086070470000C6
:1031D0000030004001494860704700000030004066
:1031E00001498860704700000030004001490860D4
:1031F000704700000030004070B504460D4605F1F0
:103200000C030122022104F10C00FDF781F905F104
:1032100014030122022104F11400FDF779F905F1EC
:103220001C030122022104F11C00FDF771F905F1D4
:1032300074030222114604F12400FDF769F905F137
:1032400084030222114604F12C00FDF761F905F117
:1032500094030222114604F14400FDF759F905F1E7
:10326000A4030222114604F14C00FDF751F905F1C7
:1032700044030222114604F15400FDF749F905F117
:1032800024030222114604F15C00FDF741F905F127
:1032900034030222114604F16400FDF739F905F107
:1032A00054030222114604F13400FDF731F904F110
:1032B000340104F12400FDF72FF905F16403022223
:1032C000114604F13C00FDF723F904F13C0104F13F
:1032D0002C00FDF721F970BD1CB50121042000F080
:1032E00029FE0220009001208DF8040000208DF8B6
:1032F000060003208DF8050002210448FFF7F3F9CA
:1033000069460248FFF784F91CBD0000000802402E
:103310001CB50121042000F00DFE4FF4C0400090C8
:1033200001208DF8040000208DF8060003208DF8A0
:10333000050001208DF8070069460848FFF768F985
:103340004FF40050009041000448FFF7CEF94FF4CD
:1033500000510248FFF7C9F91CBD000000080240F7
:1033600010B54FF400510248FFF7BFF910BD00003F
:103370000008024010B54FF480410248FFF7B5F94C
:1033800010BD00000008024010B54FF40051024883
:10339000FFF7A9F910BD00000008024010B54FF476
:1033A00080410248FFF79FF910BD0000000802406D
:1033B00017E0FFF7F3FF4FF47A7003F0DBF8FFF745
:1033C000E3FF4FF47A7003F0D5F8FFF7D3FF4FF423
:1033D0007A7003F0CFF8FFF7C3FF4FF47A7003F071
:1033E000C9F8E6E700BFFEE710B50446BB48008811
:1033F00001280AD00120BA4948700870887050200E
:10340000B84908700120B5490880E08D012802D133
:10341000B549087302E00020B3490873E08B012826
:1034200005D1B0EE040AB14880ED000A04E0B1EE27
:10343000040AAE4880ED000A208E01280BD1A8486E
:103440000078012803D0A6480078032816D102206E
:10345000A349087012E0A2480078022807D1A448C6
:103460000088012803D103209D49087006E09C488C
:103470000078022802D1012099490870207A012899
:1034800004D0022807D0032806D100E005E002207E
:103490009349087001E000E000BF00BF207C0128D4
:1034A00001D19449088093480088012802D18C49B1
:1034B000887002E000208A498870607C012811D160
:1034C00087484078012803D085484078052815D1E1
:1034D00000208949088002208149487010208149D4
:1034E00008700BE07E484078022807D1012082490D
:1034F00008807B49487050207A490870E08C7F49E9
:103500008988401A00B27D49C880E08C00B288806A
:103510000846C08801280CD1208D012809D178489F
:10352000008818B901207649088002E0002074491B
:1035300008807248C088012805D1208D012802D05A
:1035400000206F490880208C6C49098B401A00B21A
:103550006A494883208C00B208830846408B0128C2
:1035600008D165480088012801D0012000E0002032
:10357000614908806048B0F9000030B1012809D1E4
:1035800002216048FFF7B1F805E002215D48FFF72E
:10359000AAF800E000BF00BF608D58498989401A31
:1035A00000B25649C881608D00B288810846C08942
:1035B000012808D154480088012801D0012000E0EA
:1035C0000020514908805048B0F900004F49B1F936
:1035D0000010884212D04C48B0F9000038B10128E0
:1035E0000AD104203E4908700120487005E00120FE
:1035F0003B490870487000E000BF00BF4248B0F986
:10360000000042490880A08C3C490988401A00B259
:103610003A494880A08C00B20880084640880128BA
:1036200008D13B4890ED000AF7EE000A30EE200A80
:1036300080ED000A608C3149098A401A00B22F4996
:103640004882608C00B208820846408A012808D16E
:1036500027480088012801D0012000E000202449EB
:1036600008802348B0F900002A49B1F900108842C7
:103670000FD01F48B0F9000028B1012807D103205E
:103680001749087004E001201549087000E000BFE8
:1036900000BF1748B0F900001E490880A08D1749E7
:1036A000898A401A00B21549C882A08D00B288826A
:1036B0000846C08A01280FD11748C07A10B10128E6
:1036C00008D103E001201449C87204E00020124927
:1036D000C87200E000BF00BF10BD000098010020CC
:1036E000940100203001002074090020F80100201E
:1036F000A0010020A20100209A01002078070020EC
:10370000C4010020000802409E010020A401002006
:10371000C4060020A6010020905C00207047000035
:1037200070B5002100230F22C4781CB3174C246805
:1037300004F4E064C4F5E064C4F30721C1F10404B7
:10374000E3B20A4144789C40E1B2847814402143BA
:103750000C07210E0E4C05786155047804F01F0506
:103760000124AC4005786D11AD0005F1E025C5F8E8
:10377000004109E0047804F01F050124AC40054D28
:103780000678761145F8264070BD00000CED00E08B
:1037900000E400E080E100E00FB40098B0F5807F25
:1037A00004D0A0F20110002876D13AE03C48007C19
:1037B00005282CDD3B4890ED000A80ED010ADDF87C
:1037C0000B1001603849DDF80F200A60DDF81300A6
:1037D0004860084690ED000A314880ED000A314803
:1037E00090ED000AD0ED010A30EE600A2F4880ED1E
:1037F000000A2B4890ED020A2C48D0ED000AF1EEA9
:10380000600A30EE200A264880ED020A08E02448CB
:10381000007C401C224908742248DDF80B1001602E
:103820003AE01F48407C05282CDD214890ED000A35
:1038300080ED010ADDF80B1001601E49DDF80F2054
:103840000A60DDF813004860084690ED000A14484D
:1038500080ED010A164890ED010AD0ED000A30EE25
:10386000600A154880ED000A0D4890ED030A1248E1
:10387000D0ED000AF1EE600A30EE200A084880ED33
:10388000030A09E00648407C401CC1B20448417468
:103890000748DDF80B10016000BF04B0704700005E
:1038A000BC020020D0020020E8020020E00200203C
:1038B000D8020020EC020020E402002016E00C48B0
:1038C0000088401C00B20A4908800A480088401C51
:1038D00000B20849088008480088401C00B2064928
:1038E0000880FFF76BFC052002F044FEE7E70000CC
:1038F000B80200200402002088020020254909683F
:1039000009B9012100E00021224A1160C1788278C2
:1039100041EA022109B2204A11800179090642795F
:1039200041EA0241827941EA0221C27911431B4AEC
:103930001160017A0A2291FBF2F109B2184A118052
:10394000164991ED000AB8EEC00ADFED160A80EEC6
:10395000201A154981ED001A0F49B1F9001000EE47
:10396000101AB8EEC00ADFED0F0A80EE201A0F49D8
:1039700081ED001A91ED000A0D4981ED000A0A4916
:1039800091ED000A0A4981ED010A0021084A91815E
:1039900070470000B002002094020020980200202E
:1039A0009C0200200000C842A0020020A4020020C7
:1039B000A05C002090ED000AD0ED010A30EE600A14
:1039C00080ED060A90ED060AD0ED050A30EE600A99
:1039D00080ED080A90ED070AD0ED060A30EE200AC5
:1039E00080ED070A90ED070AD0ED090AB4EEE00A6F
:1039F000F1EE10FA04DB90ED090A80ED070A10E001
:103A000090ED070AD0ED090AF1EE600AB4EEE00A83
:103A1000F1EE10FA05D890ED090AB1EE400A80EDFA
:103A2000070A90ED060A80ED050A90ED020AD0ED36
:103A3000060A20EE200A80ED0A0A90ED030AD0ED76
:103A4000070A20EE200A80ED0B0A90ED040AD0ED63
:103A5000080A20EE200A80ED0C0A90ED0A0AD0ED4B
:103A60000B0A30EE200AD0ED0C0A30EE200A704727
:103A700010B5FFF74DFCFDF75FF8642001F05EFE26
:103A8000FDF734FA642001F059FE01F04BFA64208E
:103A900001F054FE01F040F9642001F04FFE01F006
:103AA00055F801F081F8074800F0F8FA642001F0B9
:103AB00045FE00F0F7FF642001F040FEFFF70CFC2C
:103AC00010BD00008C5D00209FED140A144880EDAD
:103AD000000AB3EE0E0A80ED020A9FED100A80ED97
:103AE000030A9FED0E0A80ED040A9FED0C0A80ED9B
:103AF000090A9FED0A0A80ED0E0AB3EE0E0A80ED68
:103B0000100A9FED060A80ED110A9FED040A80ED70
:103B1000120A9FED020A80ED170A704700000000AC
:103B2000D40700209FED0A0A0A4880ED000A9FEDA5
:103B30000A0A80ED020A9FED090A80ED030A9FED53
:103B4000040A80ED040A9FED060A80ED090A704719
:103B500000000000440800209A99993E6F12033B30
:103B600000007A449FED0A0A0A4880ED000AB2EE8E
:103B7000040A80ED020A9FED080A80ED030AB1EE07
:103B8000040A80ED040A9FED050A80ED090A7047DA
:103B9000000000009C0700206F12033B00007A44E5
:103BA0009FED0A0A0A4880ED000A9FED0A0A80ED9F
:103BB000020A9FED090A80ED030A9FED080A80EDD5
:103BC000040A9FED070A80ED090A70470000000013
:103BD00094080020CDCC4C3EACC527379A99193EAD
:103BE00000007A449FED2A0A2A4880ED000A9FEDE2
:103BF0002A0A80ED020A9FED290A80ED030A9FED53
:103C0000240A80ED040A9FED260A80ED090A9FED43
:103C1000200A244880ED000A9FED230A80ED020A65
:103C2000B1EE040A80ED030A9FED190A80ED040A43
:103C30009FED1E0A80ED090A9FED150A1C4880EDD4
:103C4000000A9FED150A80ED020A9FED1A0A80ED29
:103C5000030A9FED0F0A80ED040A9FED170A80ED1D
:103C6000090A9FED0B0A154880ED000A9FED140A22
:103C700080ED020AB0EE040A80ED030A9FED040A0B
:103C800080ED040A9FED0C0A80ED090A70470000E0
:103C900000000000840500203333B3BE6F1283B9E7
:103CA00000008C42BC050020003072460000FA4340
:103CB000F405002052499DB9000048442C0600201C
:103CC00000606A469FED1F0A1F4880ED000A9FEDC5
:103CD0001F0A80ED020A9FED1E0A80ED030A9FED88
:103CE0001D0A80ED040A9FED1C0A80ED090A9FED74
:103CF000190A1A4880ED000A9FED190A80ED020AA0
:103D0000B6EE000A80ED030A9FED120A80ED040A68
:103D10009FED110A80ED090A9FED0A0A114880ED16
:103D2000000A9FED0A0A80ED0A0A9FED0F0A80ED56
:103D30000B0A9FED080A80ED0C0A9FED070A80ED43
:103D4000060A704700109545FC0300200AD7A3BE61
:103D5000CDAF66B900000000000048446C040020AC
:103D600000007A466406002017B751B99FED2A0A71
:103D70002A4880ED000A9FED2A0A80ED020A9FED95
:103D8000290A80ED030A9FED240A80ED040A9FEDC5
:103D9000260A80ED090A9FED200A244880ED000ADA
:103DA0009FED230A80ED020AB0EE000A80ED030ABF
:103DB0009FED190A80ED040A9FED1E0A80ED090AA5
:103DC0009FED150A1C4880ED000A9FED1C0A80ED4E
:103DD000020A9FED1B0A80ED030A9FED0F0A80ED9A
:103DE000040A9FED180A80ED090A9FED0B0A164898
:103DF00080ED000A9FED150A80ED020AB7EE080A71
:103E000080ED030A9FED040A80ED040A9FED100A7D
:103E100080ED090A7047000000000000A4040020A3
:103E20009A9999BE52491DB900008C424C05002058
:103E300000803B460000FA43DC0400200AD7A3BE02
:103E400017B751B90000C8421405002000606A4647
:103E5000000048449FED150A154880ED000A9FEDCB
:103E6000150A80ED020A9FED140A80ED030A9FED0A
:103E70000F0A80ED040A9FED110A80ED090A9FEDFB
:103E80000B0A0F4880ED000A9FED0E0A80ED020A32
:103E9000B6EE000A80ED030A9FED040A80ED040AE5
:103EA0009FED090A80ED090A70470000000000003C
:103EB000C40300209A9999BE17B751B800008C42EC
:103EC0003404002000803B460000FA431448008878
:103ED000022805D0002013490870022010490880EC
:103EE0000020114948700870887010480088B0F5AB
:103EF000C87F0BDA0D48808840F2DC51884205DD2E
:103F00000B480088401C00B2094908800848B0F9F5
:103F10000000642802DD302002490870704700006C
:103F20009801002030010020940100208C5D0020C9
:103F3000AA01002029B1064A12680243044B1A6004
:103F400004E0034A12688243014B1A607047000084
:103F50003038024029B1064A12680243044B1A6005
:103F600004E0034A12688243014B1A607047000064
:103F70004038024029B1064A12680243044B1A60D5
:103F800004E0034A12688243014B1A607047000044
:103F90002038024029B1064A12680243044B1A60D5
:103FA00004E0034A12688243014B1A607047000024
:103FB00024380240F0B5002100220024022500260A
:103FC0000223324F3F6807F00C0121B1042905D0CC
:103FD000082937D105E02E4F076036E02D4F0760E6
:103FE00033E02A4F3F1F3F68C7F38056274F3F1FDC
:103FF0003F6807F03F036EB1264FB7FBF3F7DFF8DA
:104000008CC0ACF1040CDCF800C0CCF3881C07FBBE
:104010000CF40CE01E4FB7FBF3F7DFF870C0ACF107
:10402000040CDCF800C0CCF3881C07FB0CF4174F21
:104030003F1F3F68C7F301477F1C7D00B4FBF5F7C6
:10404000076002E0124F076000BF00BF0F4F3F68DC
:1040500007F0F0010909104F7A5C0768D740476004
:104060000A4F3F6807F4E051890A0B4F7A5C4768B2
:10407000D7408760054F3F6807F46041490B064F02
:104080007A5C4768D740C760F0BD0000083802403E
:104090000024F40000127A00F80000204FF4806140
:1040A000018041808180C180002141810022828184
:1040B000C2810274427441828282C282028342833C
:1040C0008283C283028442848284C28402854285C0
:1040D0008285C2850286022101724172002180F828
:1040E000321080F8331070470178427841EA02219B
:1040F000C1F30A016C4A11804178C910827841EA03
:104100004211C1F30A01684A518081788911C2784D
:1041100041EA8201027941EA8221C1F30A01624A3D
:10412000918001794910427941EAC211C1F30A0133
:104130005D4AD1804179C1F3011111724179890938
:1041400051728179C27941EA022109B2564A5181FC
:10415000017A427A41EA02210AB253498A81817A7C
:10416000C27A41EA02210AB24F49CA81027B0A742B
:10417000427B4A74817B01F001014B4A5182817B71
:10418000C1F3400248498A82817BC1F380024649DB
:10419000CA82817BC1F3C00243490A83817BC1F398
:1041A00000124149CA85817BC1F340123E490A860B
:1041B000817BC1F380123C494A83817BCA093A4919
:1041C0008A83C17B01F001023749CA83C17BC1F3F5
:1041D000400235490A84C17BC1F3800232494A84D6
:1041E000C17BC1F3C00230498A84C17BC1F3001294
:1041F0002D49CA84C17BC1F340122B490A85C17B7A
:10420000C1F3801228494A85C17BCA0926498A859B
:104210000121254A82F832100021244A11802249C6
:104220000988A1F580610A290ADA1F490988A1F5E0
:10423000806111F10A0F03DD4FF480611A4A118089
:1042400019494988A1F580610A290ADA164949887D
:10425000A1F5806111F10A0F03DD4FF48061124A6C
:10426000518011498988A1F580610A290ADA0E492D
:104270008988A1F5806111F10A0F03DD4FF4806197
:10428000094A91800849C988A1F580610A290ADA9A
:104290000549C988A1F5806111F10A0F03DD4FF4CA
:1042A0008061014AD18070478C5D0020B8020020F7
:1042B00010B504462748008803280AD00320254962
:1042C0000880502024490870012024494870087053
:1042D0008870002022490873224908802248B0F9DA
:1042E000000030B1012809D102212048FEF7FDF974
:1042F00005E002211D48FEF7F6F900E000BF00BF0F
:10430000207A012804D0022816D003281ED109E003
:10431000012012494870087000208870012012495D
:10432000088014E002200D49487001200870002028
:1043300088700D4908800AE0022008494870012071
:104340000870887000200849088000E000BF00BFA6
:1043500010BD0000980100203001002094010020D1
:1043600074090020A20100209A01002000080240E8
:10437000FFF7AAFBFFF7F6FBFFF7D4FB17E001F00E
:1043800067F90B488078012802D100F0E3F904E0D6
:104390000748807808B900F029FA00F09BF801205E
:1043A00002F0E8F8002002F045F802490860E6E76C
:1043B00094010020F0010020417A012904D0022953
:1043C00006D003290CD107E00121064AD17007E08D
:1043D0000021044AD17003E00221024AD17000BFDB
:1043E00000BF7047940100200CB5002001900090A0
:1043F0003448006840F480303249086000BF3148DA
:10440000006800F4003000900198401C0190009872
:1044100018B90198B0F5A04FF1D12A48006800F40E
:10442000003010B10120009001E0002000900098C1
:10443000012846D123484030006840F0805021498F
:10444000403108602048006840F440401E49086040
:104450001C48083000681B4908310860084600689D
:1044600040F4004008600846006840F4A05008602E
:104470001648091F0860081F006840F08070091F77
:10448000086000BF0F48006800F000700028F9D0F5
:1044900040F205700E4908600A480830006820F0B4
:1044A00003000849083108600846006840F002002F
:1044B000086000BF03480830006800F00C000828BE
:1044C000F8D10CBD0038024000700040085440078D
:1044D000003C024010B58C48B0F9040000EE100A10
:1044E000B8EEC00A894880ED010A8748B0F90A0091
:1044F00000EE100AB8EEC00A844880ED0F0AFFF7FC
:1045000059FADFED830AB4EEE00AF1EE10FA02D8B0
:104510009FED7F0A0FE07D48FFF74CFADFED7D0A43
:10452000B4EEE00AF1EE10FA02DB9FED7A0A02E047
:104530007648FFF73FFABDEEC00A10EE100A00B24F
:104540007549088071483830FFF734FADFED700A9A
:10455000B4EEE00AF1EE10FA02D89FED6D0A11E018
:104560006A483830FFF726FADFED6A0AB4EEE00A4F
:10457000F1EE10FA02DB9FED670A03E06348383082
:10458000FFF718FABDEEC00A10EE100A00B2624939
:10459000488000F0DDFF00EE100AB8EEC00A5F4868
:1045A00080ED010A5E48B0F9040000EE100AB8EE92
:1045B000C00A5C4880ED010A5848FFF7FBF9DFEDBF
:1045C0005A0AB4EEE00AF1EE10FA02D89FED560A4C
:1045D0000FE05248FFF7EEF9DFED540AB4EEE00ABF
:1045E000F1EE10FA02DB9FED510A02E04B48FFF7B3
:1045F000E1F94C4880ED000AFFF7DCF9DFED440AF1
:10460000B4EEE00AF1EE10FA02D89FED410A0FE095
:104610004448FFF7CFF9DFED3F0AB4EEE00AF1EED0
:1046200010FA02DB9FED3B0A02E03E48FFF7C2F9B9
:10463000BDEEC00A10EE100A00B23D4908803348B2
:1046400090ED010A3B4880ED000A304890ED0F0ADA
:10465000B1EE400A384880ED000A384890ED000A73
:104660003448D0ED000A30EE600A354880ED000A8B
:10467000344890ED000A3048D0ED000A30EE600A70
:10468000314880ED000A2B4890ED000A2A48D0ED11
:10469000000A30EE600A2D4880ED000A1A48B0F991
:1046A0000400002803DD1848B0F9040003E01648B0
:1046B000B0F904004042B0F57A7F13DD1248B0F93A
:1046C0000400002803DD1048B0F9040003E00E48A0
:1046D000B0F904004042B0F57A7F03DD01201C49A7
:1046E000088002E000201A4908800B4AB2F9021043
:1046F000B2F9000000231A46FCF7ACFA0C48B0F9F6
:104700000000FCF7B7FB10BD845C0020D40700203C
:1047100000007AC600007A46E80100204408002024
:10472000740200209C07002000409CC500409C456E
:10473000EC010020D4010020D8010020CC01002091
:10474000DC010020D0010020E0010020E401002075
:104750009C01002010B520480088012812D04FF499
:1047600096701E49888100F0F3FE00EE100AB8EE44
:10477000C00A1B4880ED000A002018490882012069
:10478000154908801748B0F90400002803DD1548D2
:10479000B0F9040003E01348B0F904004042B0F55A
:1047A0007A7F13DD0F48B0F90400002803DD0D48BF
:1047B000B0F9040003E00B48B0F904004042B0F542
:1047C0007A7F03DD01200849087002E000200649D5
:1047D000087000F047F810BDB40100207C080020EC
:1047E00044080020845C0020C601002010B5184851
:1047F0000088022802D00220154908801548C07898
:10480000022812D19FED140A144880ED000A9FED92
:10481000120A80ED0E0A00F09BFE00EE100AB8EEC0
:10482000C00A0F4880ED000A11E09FED0B0A0B480B
:1048300080ED000A9FED080A80ED0E0A00F088FE68
:1048400000EE100AB8EEC00A054880ED000A10BD5F
:10485000B40100209401002000000000D4070020D3
:104860004408002010B58048008B102815D17F48DF
:10487000B0F9020000EE100AB8EEC00A7C4880EDE4
:10488000000A7A48B0F90200404200EE100AB8EE81
:10489000C00A774880ED0E0A2EE07348008B0A2884
:1048A00015D17248B0F9000000EE100AB8EEC00A47
:1048B0006F4880ED000A6D48B0F90000404200EEFC
:1048C000100AB8EEC00A6A4880ED0E0A14E0674884
:1048D000B0F9020000EE100AB8EEC00A644880ED9C
:1048E000000A6248B0F90200404200EE100AB8EE39
:1048F000C00A5F4880ED0E0A5E48C078022829D1C0
:104900005D480068401C5C490860084600684FF438
:104910007A6190FBF1F201FB120000286AD157483E
:104920000078012866D15048C08A012862D15448D5
:10493000D0ED000A5348B0F9000000EE100AB8EEBE
:10494000C00A30EEC00A4E4880ED000A00204A49F5
:1049500008604FE04748C078012845D14A48007CAC
:104960004A49898B401A00B24849C8834648007CAE
:1049700088830846C08B01281AD140480078012856
:1049800016D13948C08A012812D14148008878B927
:104990003B48D0ED000A3B48B0F9000000EE100A99
:1049A000B8EEC00A30EEC00A354880ED000A21E0BA
:1049B0003648C08B01281DD130480078012819D114
:1049C00033480088012815D12D48D0ED000A2D4824
:1049D000B0F9000000EE100AB8EEC00A30EEC00ACE
:1049E000274880ED000A05E02248C07810B9002071
:1049F00020498870224890ED060AB5EEC00AF1EE13
:104A000010FA02DD90ED060A04E01D4890ED060A5A
:104A1000B1EE400ADFED1F0AB4EEE00AF1EE10FA43
:104A200006DD1D48C089401C00B21B49C88102E058
:104A300000201949C8811848B0F90E00B0F5487F28
:104A400010DD00201449C88100F082FD00EE100A3C
:104A5000B8EEC00A0A4880ED000A9FED100A10481F
:104A600080ED000A10BD000074090020B80100208C
:104A7000D407002094010020C8010020C6010020B6
:104A800044080020C00100208C5D00207807002031
:104A9000C401002000007A447C08002000000000CF
:104AA0009C07002041F2A2200449888041F68C1026
:104AB000C88041F2E450488170470000F0020020B5
:104AC00010B501F089FE10BD10B51548006840F41E
:104AD0007000134908601348006840F00100114954
:104AE000086000200F49083108600E4800680E4930
:104AF00008400C4908600D48091D0860081F00683F
:104B000020F48020091F0860002006490C3108604D
:104B1000FFF76AFC4FF0006001498039086010BD62
:104B200088ED00E000380240FFFFF6FE1030002460
:104B300010B50121044800F08AF818B1012102489B
:104B400000F076F810BD0000000800401FB50121FC
:104B50000420FFF7FFF944F61F60029045F207209A
:104B6000ADF804000020ADF80600ADF80C0001A976
:104B70000C4800F087F8012211460A4800F078F846
:104B80000121084800F057F81E208DF80000012090
:104B90008DF801008DF802008DF803006846FEF7DD
:104BA000BFFD1FBD000800401FB501212020FFF7F9
:104BB000D1F940F2E73002902920ADF8040000203E
:104BC000ADF80600ADF80C0001A90E4800F05AF847
:104BD000012211460B4800F04BF80121094800F072
:104BE0002AF837208DF8000001208DF80100002000
:104BF0008DF8020001208DF803006846FEF790FD55
:104C00001FBD00000014004010B50121064800F04F
:104C10001EF840B105480068401C044908600121A5
:104C2000014800F005F810BD0014004014000020F9
:104C3000CA430282704721B1028842F00102028019
:104C400004E002884FF6FE731A400280704730B5C8
:104C50000246002000230024158A05EA01039589F5
:104C600005EA010413B10CB1012000E0002030BDC1
:104C70001AB183890B43838102E083898B4383814B
:104C80007047000000220288184B98420ED0184B43
:104C900098420BD0B0F1804F08D0164B984205D007
:104CA000154B984202D0154B984204D14FF68F73A2
:104CB0001A404B881A43124B984207D0114B984226
:104CC00004D04FF6FF431A400B891A4302804B6809
:104CD000C3620B880385054B984202D0044B98426F
:104CE00001D18B7A03860123838270470000014043
:104CF000000401400004004000080040000C004097
:104D0000001000400014004004E000F0D1F9012040
:104D100001F030FCF9E7000000B597B0012108462A
:104D2000FFF708F90220159001208DF858000020A7
:104D30008DF85A0003208DF8590015A97248FDF727
:104D400067FC01214805FFF7F5F801210820FFF76E
:104D5000F1F801210C20FFF7EDF801210805FFF71C
:104D6000F9F8082202216948FDF79AFC08220C2173
:104D70006748FDF795FC0420159002208DF8580037
:104D800000208DF85A0003208DF8590000208DF87E
:104D90005B0015A95D48FDF73BFC4FF48050159072
:104DA00015A95B48FDF734FC4FF4E1301190002069
:104DB000ADF84800ADF84A00ADF84C000C20ADF855
:104DC0004E000020ADF8500011A9524800F0D4FA6E
:104DD0000121504800F0F2F9012240F225514D48DE
:104DE00000F0A4FA0B208DF8400001208DF841005E
:104DF00000208DF8420001208DF8430010A8FEF736
:104E00008FFC01224021434800F0E4F901214805CC
:104E1000FFF790F84048FDF70FFA4FF0006001905F
:104E20003C48001D02903D4803900020049009205A
:104E30000590002006904FF48060079000200890B5
:104E400009904FF480700A904FF440300B9000208E
:104E50000C900D900E900F9001A92F48FDF7ECFAE1
:104E6000012210212C48FDF7C9FA01212A48FDF73B
:104E7000D7F901228021274800F0ACF92F208DF8C6
:104E8000400001208DF841008DF842008DF843006C
:104E900010A8FEF745FC01214805FFF74BF81E4816
:104EA000A830FDF7C9F94FF0006001901948001DC6
:104EB00002901B480390402004900A200590002097
:104EC00006904FF4806007900020089009904FF4FE
:104ED00080700A904FF440300B9000200C900D90A1
:104EE0000E900F90012210210B48A830FDF786FA92
:104EF00001A90948A830FDF79FFA00210648A8300B
:104F0000FDF78EF917B000BD00000240000C024012
:104F10000008024000500040106002407C03002066
:104F20007203002000B597B001210220FFF702F8BC
:104F300001218804FFF70EF807220B213F48FDF7F7
:104F4000AFFB4FF40060119002208DF84800002064
:104F50008DF84A008DF84B0003208DF8490011A907
:104F60003648FDF755FB364800F03EF935481390BA
:104F70000020ADF85000ADF852004FF48060ADF85D
:104F800054000420ADF856000020ADF8580013A9D5
:104F90002B4800F0F1F9012240F22441284800F0AA
:104FA000C5F90121264800F009F9012240212448D1
:104FB00000F010F927208DF8400001208DF8410005
:104FC00002208DF8420001208DF8430010A8FEF762
:104FD000A7FB01214805FEF7ADFF1B48FDF72CF9A3
:104FE0004FF0006001901648001D02901748039092
:104FF000002004901E200590002006904FF4806051
:1050000007900020089009904FF480700A904FF4A8
:1050100040300B9000200C900D900E900F9001A945
:105020000948FDF709FA012210210748FDF7E6F9C2
:1050300001210548FDF7F4F817B000BD0004024057
:1050400000480040A086010028600240FC020020C9
:1050500010B540F22441124800F03EF9F0B110487A
:1050600000880F48001D008800210E48FDF7D8F881
:105070000C48FDF78DF9C0F11E000B490860084689
:105080000068122802D10948FFF72EF81E210548B2
:10509000FDF7FEF901210348FDF7C2F810BD00003D
:1050A0000048004028600240D4000020FC0200209C
:1050B00010B5384800683849096890FBF1F201FBE7
:1050C0001200002847D13349086021203349087075
:1050D00005204870FBF71EFBDFED310A20EE200AA9
:1050E000BDEEC00A10EE100A00B22E4908802E480C
:1050F00090ED030ADFED2A0A20EE200ABDEEC00A79
:105100002A4880ED000A08460088000A2349887072
:1051100024480078C87025480068000E08712348AC
:105120000068000C487121480088000A88711F48F7
:105130000078C8711E4800780872232048720A213E
:105140001648FBF73BFC02211A48FDF7CEFA012175
:105150001948FDF765F81049086800EBD07149104F
:105160000C4A126892FBF1F301FB132161B9094962
:105170000968094A126891FBF2F302FB131119B195
:1051800002210C48FDF7AFFA02480068401C0149B3
:10519000086010BDDC000020E00000207203002049
:1051A0000000C842E4000020BC020020E80000200B
:1051B000EC00002000000240B860024021B182896A
:1051C00042F40052828104E082894DF6FF731A4056
:1051D000828170471AB1838A0B43838202E0838AFB
:1051E0008B4383827047000010B5044632488442E6
:1051F00008D101211020FEF7CDFE00211020FEF77E
:10520000C9FE57E02D48844209D101214804FEF728
:10521000B1FE00214FF40030FEF7ACFE4AE0284812
:10522000844209D101218804FEF7A4FE00214FF435
:105230008020FEF79FFE3DE02248844209D10121F3
:10524000C804FEF797FE00214FF40020FEF792FEFF
:1052500030E01D48844209D101210805FEF78AFE8D
:1052600000214FF48010FEF785FE23E017488442AA
:1052700008D101212020FEF78DFE00212020FEF71D
:1052800089FE17E01248844209D101218807FEF700
:1052900071FE00214FF08040FEF76CFE0AE00D48E1
:1052A000844207D101214005FEF764FE002160051C
:1052B000FEF760FE10BD00000010014000440040F9
:1052C00000480040004C00400050004000140140E5
:1052D00000780040007C004070B5024600240023A6
:1052E0000025002040F66A16B14200D100BFC1F38C
:1052F000421501F01F03012606FA03F3012D02D126
:105300009689334006E0022D02D1168A334001E02F
:10531000968A33400C12012606FA04F416883440AB
:1053200013B10CB1012000E0002070BDF0B50346C0
:10533000002400260025002040F66A17B94200D15B
:1053400000BF1846C1F3421401F01F06012707FAF7
:1053500006F5012C01D10C3004E0022C01D11030F3
:1053600000E014301AB107682F43076002E00768B5
:10537000AF430760F0BD00002DE9FF4705460E462C
:105380000024A14600BFA046B08900B100BF2C8A0E
:1053900024F44054F08804432C82AC8941F20C6020
:1053A0008443B08831890843718908430443AC8140
:1053B000AC8A24F44074B0890443AC826846FEF79A
:1053C000F9FD2048854202D01F48854202D1DDF810
:1053D0000C9001E0DDF80890A88900F4004040B18D
:1053E00009EBC90000EB091031684900B0FBF1F787
:1053F00007E009EBC90000EB091031688900B0FB38
:10540000F1F76420B7FBF0F004012009642101FBEF
:105410001078A88900F4004040B1322000EBC800A9
:10542000B0FBF1F000F00700044308E0322000EB8D
:1054300008106421B0FBF1F000F00F0004432C8150
:10544000BDE8FF87001001400014014000BFFEE7E7
:1054500070B505460C4600260DB1022C01D800207F
:1054600070BD611EFF222846FDF742F90646054938
:105470000880601E285CB04201D10120F0E70020C6
:10548000EEE70000D2000020F0EE400AC0ED030A73
:1054900090ED030A90ED021A30EE410A80ED040A05
:1054A00090ED030A80ED020A90ED040A90ED011AD6
:1054B000DFED241A21EE211AB4EEC10AF1EE10FA42
:1054C0000FDD90ED040A90ED011A30EE410A80EDF7
:1054D000040A90ED000AB7EE001A30EE010A80EDE2
:1054E000000A90ED040A90ED011ADFED171A21EE83
:1054F000211AB4EEC10AF1EE10FA0FD290ED040AAF
:1055000090ED011A30EE010A80ED040A90ED000AD8
:10551000B7EE001A30EE410A80ED000A012908D1E9
:1055200090ED030A90ED001AD0ED011A01EE610A28
:105530007047022902D190ED040AF9E79FED030AB2
:10554000F6E700006666663F666666BF000000001C
:105550000148006870470000900100209FED2F0A6D
:105560002F4880ED010A2F48B0F9020000EE100A22
:10557000B8EEC00A2A4880ED020A9FED2B0A80EDA2
:10558000000A9FED260A294880ED010A2848B0F953
:10559000020000EE100AB8EEC00A244880ED020AAC
:1055A0009FED210A80ED000A9FED1F0A214880ED42
:1055B000000A9FED1A0A80ED010A1A48B0F90200AC
:1055C00000EE100AB8EEC00A1A4880ED020A9FEDFC
:1055D000160A194880ED000A9FED100A80ED010AB5
:1055E0001348B0F9020000EE100AB8EEC00A1248E3
:1055F00080ED020A9FED0C0A104880ED000A9FED35
:10560000070A80ED010A0E48B0F9020000EE100A08
:10561000B8EEC00A094880ED020A70470000004653
:10562000B00600208002002000000000C406002018
:105630007A020020D8060020EC0600206407002033
:1056400074020020014800687047000070010020CB
:1056500000B52D48B0F9020000EE900AF8EEE00A1D
:10566000B0EE600A01212948FFF70EFFBDEEC00A27
:10567000274880ED000A2448B0F9020000EE900AA5
:10568000F8EEE00AB0EE600A02212248FFF7FCFEC5
:10569000BDEEC00A204880ED000A2048B0F90200A3
:1056A00000EE900AF8EEE00AB0EE600A01211C4814
:1056B000FFF7EAFEBDEEC00A1A4880ED000A17485F
:1056C000B0F9020000EE900AF8EEE00AB0EE600ACF
:1056D00002211548FFF7D8FEBDEEC00A134880ED41
:1056E000000A1348B0F9020000EE900AF8EEE00A52
:1056F000B0EE600A01210F48FFF7C6FEBDEEC00AFA
:105700000D4880ED000A00BD80020020B006002098
:105710006C010020D8060020740100207A020020CD
:10572000C406002070010020EC0600207801002053
:1057300074020020640700209001002010B50021B1
:1057400007E042F63C0200BF1300A2F10102FBD1C8
:10575000491C8142F5D310BD2DE9F0412DED0E8B92
:105760008EB08046B0EE408AF0EE608A18EE100AE5
:1057700001F05CFE41EC1C0B9FEDFE0B53EC102B7B
:1057800001F034FD0CD318EE100A01F04FFE41EC8D
:105790001C0B9FEDFA0B53EC102B01F0EDFB01D22B
:1057A0009FEDF8BA18EE100A01F040FE41EC1C0B18
:1057B0009FEDF00B53EC102B01F0DEFB11D218EE35
:1057C000100A01F033FE41EC1C0B9FEDEF0B53EC84
:1057D000102B01F00BFD04D29FEDED0AB0EE40BAA4
:1057E00089E018EE100A01F021FE41EC1C0B9FED40
:1057F000E60B53EC102B01F0BFFB11D218EE100A90
:1058000001F014FE41EC1C0B9FEDE20B53EC102B4E
:1058100001F0ECFC04D29FEDE10AB0EE40BA6AE080
:1058200018EE100A01F002FE41EC1C0B9FEDD90BA3
:1058300053EC102B01F0A0FB09D2B5EEC08AF1EEBB
:1058400010FA04DD9FEDCF0AB0EE40BA53E0B5EE9A
:10585000C08AF1EE10FA11D218EE100A01F0E6FD3E
:1058600041EC1C0B9FEDCE0B53EC102B01F0BEFC5A
:1058700004D29FEDCD0AB0EE40BA3CE018EE100A1B
:1058800001F0D4FD41EC1C0B9FEDC50B53EC102B2C
:1058900001F072FB11D218EE100A01F0C7FD41ECC5
:1058A0001C0B9FEDC20B53EC102B01F09FFC04D29C
:1058B0009FEDC00AB0EE40BA1DE018EE100A01F0EC
:1058C000B5FD41EC1C0B9FEDB90B53EC102B01F017
:1058D00053FB10D218EE100A01F0A8FD41EC1C0B8E
:1058E0009FEDA60B53EC102B01F080FC03D29FED33
:1058F000B20AB0EE40BAB5EEC0BAF1EE10FA02D17B
:105900009FEDA09A05E038EE4B0ADFEDA40A80EE89
:10591000209AB5EEC0BAF1EE10FA02D19FED99AA25
:1059200003E0B7EE000A30EE49AA1BEE100A01F0C0
:105930007DFD41EC1D0B9FED910B53EC102B01F005
:105940008BFC41EC1E0B9FED9D0B53EC102B01F0DB
:1059500075F941EC1C0B01F0C9FA04B2601C06B2E7
:1059600018EE900A01F062FD41EC1C0B9FED810BDB
:1059700053EC102B01F03AFC0CD318EE900A01F016
:1059800055FD41EC1C0B9FED7D0B53EC102B01F0F2
:10599000F3FA01D2DFED7BBA18EE900A01F046FD72
:1059A00041EC1C0B9FED730B53EC102B01F0E4FA50
:1059B00011D218EE900A01F039FD41EC1C0B9FED5D
:1059C000720B53EC102B01F011FC04D29FED700A06
:1059D000F0EE40BA89E018EE900A01F027FD41ECA4
:1059E0001C0B9FED690B53EC102B01F0C5FA11D283
:1059F00018EE900A01F01AFD41EC1C0B9FED650BAF
:105A000053EC102B01F0F2FB04D29FED640AF0EE90
:105A100040BA6AE018EE900A01F008FD41EC1C0B58
:105A20009FED5C0B53EC102B01F0A6FA09D2F5EEBA
:105A3000C08AF1EE10FA04DD9FED520AF0EE40BA92
:105A400053E0F5EEC08AF1EE10FA11D218EE900A8A
:105A500001F0ECFC41EC1C0B9FED510B53EC102BB7
:105A600001F0C4FB04D29FED500AF0EE40BA3CE0D6
:105A700018EE900A01F0DAFC41EC1C0B9FED480B8C
:105A800053EC102B01F078FA11D218EE900A01F0C5
:105A9000CDFC41EC1C0B9FED450B53EC102B01F0A2
:105AA000A5FB04D29FED430AF0EE40BA1DE018EECC
:105AB000900A01F0BBFC41EC1C0B9FED3C0B53EC3E
:105AC000102B01F059FA10D218EE900A01F0AEFC3A
:105AD00041EC1C0B9FED290B53EC102B01F086FBC6
